{
  "transactions": [
    {
      "hash": "0xe255dc689ccd1f6789c135eca5a93bd98c2a497db033e627e8a2428f6dcf9b99",
      "transactionType": "CALL",
      "contractName": null,
      "contractAddress": "0x8b345b1261d017c020c11c5e50b3c66865c4af97",
      "function": "configureToken(address,uint8,uint256,address)",
      "arguments": [
        "0xA668a7997b0F000D2D4765C233413Fac05c3307e",
        "2",
        "84532",
        "0xA668a7997b0F000D2D4765C233413Fac05c3307e"
      ],
      "transaction": {
        "from": "0x1894e3e6618e959cd1762f51c872af60a4061961",
        "to": "0x8b345b1261d017c020c11c5e50b3c66865c4af97",
        "gas": "0x27b4f",
        "value": "0x0",
        "input": "0x83f3fefc000000000000000000000000a668a7997b0f000d2d4765c233413fac05c3307e00000000000000000000000000000000000000000000000000000000000000020000000000000000000000000000000000000000000000000000000000014a34000000000000000000000000a668a7997b0f000d2d4765c233413fac05c3307e",
        "nonce": "0x2",
        "chainId": "0xe705"
      },
      "additionalContracts": [],
      "isFixedGasLimit": false
    },
    {
      "hash": "0xe0dac8e258813eeb9acd396560308822ef632f4504d860927eb8f8da47ea7872",
      "transactionType": "CALL",
      "contractName": null,
      "contractAddress": "0xa668a7997b0f000d2d4765c233413fac05c3307e",
      "function": "grantRole(bytes32,address)",
      "arguments": [
        "0x9f2df0fed2c77648de5860a4cc508cd0818c85b8b8a1ab4ceeef8d981c8956a6",
        "0x8B345b1261D017c020C11C5E50B3c66865c4aF97"
      ],
      "transaction": {
        "from": "0x1894e3e6618e959cd1762f51c872af60a4061961",
        "to": "0xa668a7997b0f000d2d4765c233413fac05c3307e",
        "gas": "0x118b0",
        "value": "0x0",
        "input": "0x2f2ff15d9f2df0fed2c77648de5860a4cc508cd0818c85b8b8a1ab4ceeef8d981c8956a60000000000000000000000008b345b1261d017c020c11c5e50b3c66865c4af97",
        "nonce": "0x3",
        "chainId": "0xe705"
      },
      "additionalContracts": [],
      "isFixedGasLimit": false
    }
  ],
  "receipts": [
    {
      "type": "0x2",
      "status": "0x1",
      "cumulativeGasUsed": "0x1cbf4",
      "logs": [
        {
          "address": "0x8b345b1261d017c020c11c5e50b3c66865c4af97",
          "topics": [
            "0x7ff3e88bdbe4aba1212a392eed7572d56581ed6b521da7de8e7df586f975e260"
          ],
          "data": "0x000000000000000000000000a668a7997b0f000d2d4765c233413fac05c3307e00000000000000000000000000000000000000000000000000000000000000020000000000000000000000000000000000000000000000000000000000014a34000000000000000000000000a668a7997b0f000d2d4765c233413fac05c3307e",
          "blockHash": "0x510d71cb450436f7ef7dd8518afc639cb53e14e0c57a017023d078bdd762dd90",
          "blockNumber": "0x1d8f3f5",
          "blockTimestamp": "0x6a5eb455",
          "transactionHash": "0xe255dc689ccd1f6789c135eca5a93bd98c2a497db033e627e8a2428f6dcf9b99",
          "transactionIndex": "0x0",
          "logIndex": "0x0",
          "removed": false
        }
      ],
      "logsBloom": "0x00000400000000000000000000000000000000000000000000000000000000000000000000000000000000000000000000000000000000000000000000000000000000000000000000000000000000000000000000000000000000000000000000000000000000000000000000000000000000001000000000000000000000000000000000000000000000000000000000000000000000000000000000000000000000000000000000000000040000001000000000000000000000000000000000000000000000000000000000000000000000000000000000000000000000000000000000000000000000000400000000000000000000000000000000001000",
      "transactionHash": "0xe255dc689ccd1f6789c135eca5a93bd98c2a497db033e627e8a2428f6dcf9b99",
      "transactionIndex": "0x0",
      "blockHash": "0x510d71cb450436f7ef7dd8518afc639cb53e14e0c57a017023d078bdd762dd90",
      "blockNumber": "0x1d8f3f5",
      "gasUsed": "0x1cbf4",
      "effectiveGasPrice": "0x2331c40",
      "from": "0x1894e3e6618e959cd1762f51c872af60a4061961",
      "to": "0x8b345b1261d017c020c11c5e50b3c66865c4af97",
      "contractAddress": null
    },
    {
      "type": "0x2",
      "status": "0x1",
      "cumulativeGasUsed": "0x2972b",
      "logs": [
        {
          "address": "0xa668a7997b0f000d2d4765c233413fac05c3307e",
          "topics": [
            "0x2f8788117e7eff1d82e926ec794901d17c78024a50270940304540a733656f0d",
            "0x9f2df0fed2c77648de5860a4cc508cd0818c85b8b8a1ab4ceeef8d981c8956a6",
            "0x0000000000000000000000008b345b1261d017c020c11c5e50b3c66865c4af97",
            "0x0000000000000000000000001894e3e6618e959cd1762f51c872af60a4061961"
          ],
          "data": "0x",
          "blockHash": "0x510d71cb450436f7ef7dd8518afc639cb53e14e0c57a017023d078bdd762dd90",
          "blockNumber": "0x1d8f3f5",
          "blockTimestamp": "0x6a5eb455",
          "transactionHash": "0xe0dac8e258813eeb9acd396560308822ef632f4504d860927eb8f8da47ea7872",
          "transactionIndex": "0x1",
          "logIndex": "0x1",
          "removed": false
        }
      ],
      "logsBloom": "0x00000004000000000000000000000000000000000000000000000000000001000000000000000000000020000000004000000000000000000000000000001000040000000000000000000104000000000000000000000100000000000000000002000000000000000000000000000000000000000000000000000000001000000000000000000000000000000000000000000000004000000000000000000000000000000000000000000000000000000000000000000000001000000000000000000000000000000000000000000000001000000000000100000000000000000000000000000000000000000000000000000000000000000000000000000000",
      "transactionHash": "0xe0dac8e258813eeb9acd396560308822ef632f4504d860927eb8f8da47ea7872",
      "transactionIndex": "0x1",
      "blockHash": "0x510d71cb450436f7ef7dd8518afc639cb53e14e0c57a017023d078bdd762dd90",
      "blockNumber": "0x1d8f3f5",
      "gasUsed": "0xcb37",
      "effectiveGasPrice": "0x2331c40",
      "from": "0x1894e3e6618e959cd1762f51c872af60a4061961",
      "to": "0xa668a7997b0f000d2d4765c233413fac05c3307e",
      "contractAddress": null
    }
  ],
  "libraries": [],
  "pending": [],
  "returns": {},
  "timestamp": 1784591447718,
  "chain": 59141,
  "commit": "eedf923"
}