{
  "transactions": [
    {
      "hash": "0x2909c07b961bb22b251884470f69aa053bb614247000395f53d6439fd7110cd0",
      "transactionType": "CALL",
      "contractName": null,
      "contractAddress": "0x8b345b1261d017c020c11c5e50b3c66865c4af97",
      "function": "configureToken(address,uint8,uint256,address)",
      "arguments": [
        "0xA668a7997b0F000D2D4765C233413Fac05c3307e",
        "1",
        "59141",
        "0xA668a7997b0F000D2D4765C233413Fac05c3307e"
      ],
      "transaction": {
        "from": "0x1894e3e6618e959cd1762f51c872af60a4061961",
        "to": "0x8b345b1261d017c020c11c5e50b3c66865c4af97",
        "gas": "0x27b3e",
        "value": "0x0",
        "input": "0x83f3fefc000000000000000000000000a668a7997b0f000d2d4765c233413fac05c3307e0000000000000000000000000000000000000000000000000000000000000001000000000000000000000000000000000000000000000000000000000000e705000000000000000000000000a668a7997b0f000d2d4765c233413fac05c3307e",
        "nonce": "0x2",
        "chainId": "0x14a34"
      },
      "additionalContracts": [],
      "isFixedGasLimit": false
    }
  ],
  "receipts": [
    {
      "type": "0x2",
      "status": "0x1",
      "cumulativeGasUsed": "0x27f092",
      "logs": [
        {
          "address": "0x8b345b1261d017c020c11c5e50b3c66865c4af97",
          "topics": [
            "0x7ff3e88bdbe4aba1212a392eed7572d56581ed6b521da7de8e7df586f975e260"
          ],
          "data": "0x000000000000000000000000a668a7997b0f000d2d4765c233413fac05c3307e0000000000000000000000000000000000000000000000000000000000000001000000000000000000000000000000000000000000000000000000000000e705000000000000000000000000a668a7997b0f000d2d4765c233413fac05c3307e",
          "blockHash": "0x0000000000000000000000000000000000000000000000000000000000000000",
          "blockNumber": "0x2a5aa96",
          "blockTimestamp": "0x6a5eb40c",
          "transactionHash": "0x2909c07b961bb22b251884470f69aa053bb614247000395f53d6439fd7110cd0",
          "transactionIndex": "0x15",
          "logIndex": "0x44",
          "removed": false
        }
      ],
      "logsBloom": "0x00000400000000000000000000000000000000000000000000000000000000000000000000000000000000000000000000000000000000000000000000000000000000000000000000000000000000000000000000000000000000000000000000000000000000000000000000000000000000001000000000000000000000000000000000000000000000000000000000000000000000000000000000000000000000000000000000000000040000001000000000000000000000000000000000000000000000000000000000000000000000000000000000000000000000000000000000000000000000000400000000000000000000000000000000001000",
      "transactionHash": "0x2909c07b961bb22b251884470f69aa053bb614247000395f53d6439fd7110cd0",
      "transactionIndex": "0x15",
      "blockHash": "0x0000000000000000000000000000000000000000000000000000000000000000",
      "blockNumber": "0x2a5aa96",
      "gasUsed": "0x1cbe8",
      "effectiveGasPrice": "0x5b8d80",
      "blobGasUsed": "0xae38",
      "from": "0x1894e3e6618e959cd1762f51c872af60a4061961",
      "to": "0x8b345b1261d017c020c11c5e50b3c66865c4af97",
      "contractAddress": null,
      "l1GasPrice": "0x3d1483e8",
      "l1GasUsed": "0x640",
      "l1Fee": "0x14b51f67b",
      "l1BaseFeeScalar": "0x44d",
      "l1BlobBaseFee": "0x363f6bb",
      "l1BlobBaseFeeScalar": "0xa118b",
      "daFootprintGasScalar": "0x1be"
    }
  ],
  "libraries": [],
  "pending": [],
  "returns": {},
  "timestamp": 1784591371806,
  "chain": 84532,
  "commit": "eedf923"
}